{
  "contractName": "Wrestling",
  "abi": [
    {
      "constant": true,
      "inputs": [],
      "name": "theWinner",
      "outputs": [
        {
          "name": "",
          "type": "address"
        }
      ],
      "payable": false,
      "stateMutability": "view",
      "type": "function"
    },
    {
      "constant": true,
      "inputs": [],
      "name": "wrestler2",
      "outputs": [
        {
          "name": "",
          "type": "address"
        }
      ],
      "payable": false,
      "stateMutability": "view",
      "type": "function"
    },
    {
      "constant": true,
      "inputs": [],
      "name": "wrestler1Played",
      "outputs": [
        {
          "name": "",
          "type": "bool"
        }
      ],
      "payable": false,
      "stateMutability": "view",
      "type": "function"
    },
    {
      "constant": true,
      "inputs": [],
      "name": "wrestler1",
      "outputs": [
        {
          "name": "",
          "type": "address"
        }
      ],
      "payable": false,
      "stateMutability": "view",
      "type": "function"
    },
    {
      "constant": true,
      "inputs": [],
      "name": "gameFinished",
      "outputs": [
        {
          "name": "",
          "type": "bool"
        }
      ],
      "payable": false,
      "stateMutability": "view",
      "type": "function"
    },
    {
      "constant": true,
      "inputs": [],
      "name": "wrestler2Played",
      "outputs": [
        {
          "name": "",
          "type": "bool"
        }
      ],
      "payable": false,
      "stateMutability": "view",
      "type": "function"
    },
    {
      "inputs": [],
      "payable": false,
      "stateMutability": "nonpayable",
      "type": "constructor"
    },
    {
      "anonymous": false,
      "inputs": [
        {
          "indexed": false,
          "name": "wrestler1",
          "type": "address"
        },
        {
          "indexed": false,
          "name": "wrestler2",
          "type": "address"
        }
      ],
      "name": "WrestlingStartsEvent",
      "type": "event"
    },
    {
      "anonymous": false,
      "inputs": [
        {
          "indexed": false,
          "name": "wrestler1Deposit",
          "type": "uint256"
        },
        {
          "indexed": false,
          "name": "wrestler2Deposit",
          "type": "uint256"
        }
      ],
      "name": "EndOfRoundEvent",
      "type": "event"
    },
    {
      "anonymous": false,
      "inputs": [
        {
          "indexed": false,
          "name": "winner",
          "type": "address"
        },
        {
          "indexed": false,
          "name": "gains",
          "type": "uint256"
        }
      ],
      "name": "EndOfWrestlingEvent",
      "type": "event"
    },
    {
      "constant": false,
      "inputs": [],
      "name": "registerAsAnOpponent",
      "outputs": [],
      "payable": false,
      "stateMutability": "nonpayable",
      "type": "function"
    },
    {
      "constant": false,
      "inputs": [],
      "name": "wrestle",
      "outputs": [],
      "payable": true,
      "stateMutability": "payable",
      "type": "function"
    },
    {
      "constant": false,
      "inputs": [],
      "name": "withdraw",
      "outputs": [],
      "payable": false,
      "stateMutability": "nonpayable",
      "type": "function"
    }
  ],
  "bytecode": "0x608060405234801561001057600080fd5b50336000806101000a81548173ffffffffffffffffffffffffffffffffffffffff021916908373ffffffffffffffffffffffffffffffffffffffff160217905550610b9f806100606000396000f300608060405260043610610099576000357c0100000000000000000000000000000000000000000000000000000000900463ffffffff16806303cc55971461009e5780633ccfd60b146100a85780639d24e482146100bf5780639e07f92a146101165780639ede38581461016d578063a8b42f1f1461019c578063e2f0a978146101b3578063f0f324971461020a578063f973728e14610239575b600080fd5b6100a6610268565b005b3480156100b457600080fd5b506100bd610636565b005b3480156100cb57600080fd5b506100d4610792565b604051808273ffffffffffffffffffffffffffffffffffffffff1673ffffffffffffffffffffffffffffffffffffffff16815260200191505060405180910390f35b34801561012257600080fd5b5061012b6107b8565b604051808273ffffffffffffffffffffffffffffffffffffffff1673ffffffffffffffffffffffffffffffffffffffff16815260200191505060405180910390f35b34801561017957600080fd5b506101826107de565b604051808215151515815260200191505060405180910390f35b3480156101a857600080fd5b506101b16107f1565b005b3480156101bf57600080fd5b506101c86109d4565b604051808273ffffffffffffffffffffffffffffffffffffffff1673ffffffffffffffffffffffffffffffffffffffff16815260200191505060405180910390f35b34801561021657600080fd5b5061021f6109f9565b604051808215151515815260200191505060405180910390f35b34801561024557600080fd5b5061024e610a0c565b604051808215151515815260200191505060405180910390f35b600460009054906101000a900460ff1615801561032957506000809054906101000a900473ffffffffffffffffffffffffffffffffffffffff1673ffffffffffffffffffffffffffffffffffffffff163373ffffffffffffffffffffffffffffffffffffffff1614806103285750600160009054906101000a900473ffffffffffffffffffffffffffffffffffffffff1673ffffffffffffffffffffffffffffffffffffffff163373ffffffffffffffffffffffffffffffffffffffff16145b5b15156103c3576040517f08c379a000000000000000000000000000000000000000000000000000000000815260040180806020018281038252602e8152602001807f47616d65206e6f742046696e697368656420616e64206569746865722077726581526020017f73746c65722073656c656374656400000000000000000000000000000000000081525060400191505060405180910390fd5b6000809054906101000a900473ffffffffffffffffffffffffffffffffffffffff1673ffffffffffffffffffffffffffffffffffffffff163373ffffffffffffffffffffffffffffffffffffffff1614156104cd5760001515600160149054906101000a900460ff1615151415156104a3576040517f08c379a00000000000000000000000000000000000000000000000000000000081526004018080602001828103825260148152602001807f57726573746c657231206e6f7420706c6179656400000000000000000000000081525060200191505060405180910390fd5b60018060146101000a81548160ff021916908315150217905550346002540160028190555061057e565b60001515600160159054906101000a900460ff161515141515610558576040517f08c379a00000000000000000000000000000000000000000000000000000000081526004018080602001828103825260148152602001807f57726573746c657232206e6f7420706c6179656400000000000000000000000081525060200191505060405180910390fd5b60018060156101000a81548160ff02191690831515021790555034600354016003819055505b600160149054906101000a900460ff1680156105a65750600160159054906101000a900460ff165b15610634576002600354026002541015156105ea576105e56000809054906101000a900473ffffffffffffffffffffffffffffffffffffffff16610a1f565b610633565b600280540260035410151561062957610624600160009054906101000a900473ffffffffffffffffffffffffffffffffffffffff16610a1f565b610632565b610631610af8565b5b5b5b565b6000600460009054906101000a900460ff1680156106a157503373ffffffffffffffffffffffffffffffffffffffff16600460019054906101000a900473ffffffffffffffffffffffffffffffffffffffff1673ffffffffffffffffffffffffffffffffffffffff16145b151561073b576040517f08c379a00000000000000000000000000000000000000000000000000000000081526004018080602001828103825260218152602001807f47616d652046696e697368656420616e642057696e6e65722073656c6563746581526020017f640000000000000000000000000000000000000000000000000000000000000081525060400191505060405180910390fd5b600554905060006005819055503373ffffffffffffffffffffffffffffffffffffffff166108fc829081150290604051600060405180830381858888f1935050505015801561078e573d6000803e3d6000fd5b5050565b600460019054906101000a900473ffffffffffffffffffffffffffffffffffffffff1681565b600160009054906101000a900473ffffffffffffffffffffffffffffffffffffffff1681565b600160149054906101000a900460ff1681565b600073ffffffffffffffffffffffffffffffffffffffff16600160009054906101000a900473ffffffffffffffffffffffffffffffffffffffff1673ffffffffffffffffffffffffffffffffffffffff161415156108b7576040517f08c379a000000000000000000000000000000000000000000000000000000000815260040180806020018281038252601b8152602001807f4164642077726573746c65723220746f206163636f756e745b305d000000000081525060200191505060405180910390fd5b33600160006101000a81548173ffffffffffffffffffffffffffffffffffffffff021916908373ffffffffffffffffffffffffffffffffffffffff1602179055507fd4443f0433b17d5fcbda14745060c62f4fd645677efd560e394d49cc6b73b9e56000809054906101000a900473ffffffffffffffffffffffffffffffffffffffff16600160009054906101000a900473ffffffffffffffffffffffffffffffffffffffff16604051808373ffffffffffffffffffffffffffffffffffffffff1673ffffffffffffffffffffffffffffffffffffffff1681526020018273ffffffffffffffffffffffffffffffffffffffff1673ffffffffffffffffffffffffffffffffffffffff1681526020019250505060405180910390a1565b6000809054906101000a900473ffffffffffffffffffffffffffffffffffffffff1681565b600460009054906101000a900460ff1681565b600160159054906101000a900460ff1681565b6001600460006101000a81548160ff02191690831515021790555080600460016101000a81548173ffffffffffffffffffffffffffffffffffffffff021916908373ffffffffffffffffffffffffffffffffffffffff160217905550600354600254016005819055507f132c17ee6430a7c27424b2711c0e3f020ae13d9d62cfb347ae343c2180654bcb81600554604051808373ffffffffffffffffffffffffffffffffffffffff1673ffffffffffffffffffffffffffffffffffffffff1681526020018281526020019250505060405180910390a150565b6000600160146101000a81548160ff0219169083151502179055506000600160156101000a81548160ff0219169083151502179055507f4a06b026e39d5ecf4150ef1983227e240bcd23677c8d89479f9521c4e7bed63e600254600354604051808381526020018281526020019250505060405180910390a15600a165627a7a7230582037ee94fa842bae983649e8755140612d19544c8d31b9250cd2799cd1ed1b94e50029",
  "source": "pragma solidity ^0.4.24;\r\n\r\n    /**\r\n    * Example script for the Ethereum development walkthrough\r\n    */\r\n\r\ncontract Wrestling {\r\n    /**\r\n    * Our wrestlers\r\n    */\r\n\r\n    address public  wrestler1;\r\n    address public  wrestler2;\r\n\r\n    bool public wrestler1Played;\r\n    bool public wrestler2Played;\r\n\r\n    uint private wrestler1Deposit;\r\n    uint private wrestler2Deposit;\r\n\r\n    bool public gameFinished;\r\n    address public theWinner;\r\n    uint gains;\r\n\r\n    /**\r\n    * The logs that will be emitted in every step of the contract's life cycle\r\n    */\r\n\r\n    event WrestlingStartsEvent(address wrestler1, address wrestler2);\r\n    event EndOfRoundEvent(uint wrestler1Deposit, uint wrestler2Deposit);\r\n    event EndOfWrestlingEvent(address winner, uint gains);\r\n\r\n    /**\r\n    * The contract constructor\r\n    */\r\n\r\n    constructor() public {\r\n        wrestler1 = msg.sender;\r\n    }\r\n\r\n    /**\r\n    * A second wrestler can register as an opponent\r\n    */\r\n\r\n    function registerAsAnOpponent() public {\r\n        require(wrestler2 == address(0), \"Add wrestler2 to account[0]\");\r\n\r\n        wrestler2 = msg.sender;\r\n        emit WrestlingStartsEvent(wrestler1, wrestler2);\r\n    }\r\n\r\n    /**\r\n    * Every round a player can put a sum of ether, if one of the player put in twice or\r\n    * more the money (in total) than the other did, the first wins\r\n    */\r\n    function wrestle() public payable {\r\n        require(!gameFinished && (msg.sender == wrestler1 || msg.sender == wrestler2), \"Game not Finished and either wrestler selected\");\r\n\r\n        if(msg.sender == wrestler1) {\r\n            require(wrestler1Played == false, \"Wrestler1 not played\");\r\n            wrestler1Played = true;\r\n            wrestler1Deposit = wrestler1Deposit + msg.value;\r\n    \t} else {\r\n            require(wrestler2Played == false, \"Wrestler2 not played\");\r\n            wrestler2Played = true;\r\n            wrestler2Deposit = wrestler2Deposit + msg.value;\r\n    \t}\r\n    \t\r\n        if(wrestler1Played && wrestler2Played) {    \r\n            if(wrestler1Deposit >= wrestler2Deposit * 2) {\r\n                endOfGame(wrestler1);\r\n    \t\t} else if (wrestler2Deposit >= wrestler1Deposit * 2) {\r\n    \t\t\tendOfGame(wrestler2);\r\n    \t\t} else {\r\n                endOfRound();\r\n    \t\t}\r\n    \t}\r\n    }\r\n\r\n    function endOfRound() internal {\r\n        wrestler1Played = false;\r\n        wrestler2Played = false;\r\n\r\n        emit EndOfRoundEvent(wrestler1Deposit, wrestler2Deposit);\r\n    }\r\n\r\n    function endOfGame(address winner) internal {\r\n        gameFinished = true;\r\n        theWinner = winner;\r\n\r\n        gains = wrestler1Deposit + wrestler2Deposit;\r\n        emit EndOfWrestlingEvent(winner, gains);\r\n    }\r\n\r\n    /**\r\n    * The withdraw function, following the withdraw pattern shown and explained here:\r\n    * http://solidity.readthedocs.io/en/develop/common-patterns.html#withdrawal-from-contracts\r\n    */\r\n    function withdraw() public {\r\n        require(gameFinished && theWinner == msg.sender, \"Game Finished and Winner selected\");\r\n\r\n        uint amount = gains;\r\n\r\n        gains = 0;\r\n        msg.sender.transfer(amount);\r\n    }\r\n}",
  "sourcePath": "C:\\Users\\EAZETNG\\Desktop\\CodeLagos\\work-area\\wrestle-mania\\contracts\\Wrestling.sol",
  "compiler": {
    "name": "solc",
    "version": "0.4.24+commit.e67f0147.Emscripten.clang"
  },
  "schemaVersion": "2.0.1",
  "updatedAt": "2018-12-04T19:21:17.763Z"
}